{
  "contractName": "DoodleFriends",
  "abi": [
    {
      "inputs": [],
      "stateMutability": "nonpayable",
      "type": "constructor"
    },
    {
      "anonymous": false,
      "inputs": [
        {
          "indexed": true,
          "internalType": "address",
          "name": "owner",
          "type": "address"
        },
        {
          "indexed": true,
          "internalType": "address",
          "name": "approved",
          "type": "address"
        },
        {
          "indexed": true,
          "internalType": "uint256",
          "name": "tokenId",
          "type": "uint256"
        }
      ],
      "name": "Approval",
      "type": "event"
    },
    {
      "anonymous": false,
      "inputs": [
        {
          "indexed": true,
          "internalType": "address",
          "name": "owner",
          "type": "address"
        },
        {
          "indexed": true,
          "internalType": "address",
          "name": "operator",
          "type": "address"
        },
        {
          "indexed": false,
          "internalType": "bool",
          "name": "approved",
          "type": "bool"
        }
      ],
      "name": "ApprovalForAll",
      "type": "event"
    },
    {
      "anonymous": false,
      "inputs": [
        {
          "indexed": false,
          "internalType": "address",
          "name": "to",
          "type": "address"
        },
        {
          "indexed": true,
          "internalType": "uint256",
          "name": "id",
          "type": "uint256"
        }
      ],
      "name": "DoodleFriendSummoned",
      "type": "event"
    },
    {
      "anonymous": false,
      "inputs": [
        {
          "indexed": true,
          "internalType": "address",
          "name": "previousOwner",
          "type": "address"
        },
        {
          "indexed": true,
          "internalType": "address",
          "name": "newOwner",
          "type": "address"
        }
      ],
      "name": "OwnershipTransferred",
      "type": "event"
    },
    {
      "anonymous": false,
      "inputs": [
        {
          "indexed": false,
          "internalType": "address",
          "name": "account",
          "type": "address"
        }
      ],
      "name": "Paused",
      "type": "event"
    },
    {
      "anonymous": false,
      "inputs": [
        {
          "indexed": true,
          "internalType": "address",
          "name": "from",
          "type": "address"
        },
        {
          "indexed": true,
          "internalType": "address",
          "name": "to",
          "type": "address"
        },
        {
          "indexed": true,
          "internalType": "uint256",
          "name": "tokenId",
          "type": "uint256"
        }
      ],
      "name": "Transfer",
      "type": "event"
    },
    {
      "anonymous": false,
      "inputs": [
        {
          "indexed": false,
          "internalType": "address",
          "name": "account",
          "type": "address"
        }
      ],
      "name": "Unpaused",
      "type": "event"
    },
    {
      "inputs": [],
      "name": "SALE_OPEN",
      "outputs": [
        {
          "internalType": "bool",
          "name": "",
          "type": "bool"
        }
      ],
      "stateMutability": "view",
      "type": "function",
      "constant": true
    },
    {
      "inputs": [
        {
          "internalType": "address",
          "name": "to",
          "type": "address"
        },
        {
          "internalType": "uint256",
          "name": "tokenId",
          "type": "uint256"
        }
      ],
      "name": "approve",
      "outputs": [],
      "stateMutability": "nonpayable",
      "type": "function"
    },
    {
      "inputs": [
        {
          "internalType": "address",
          "name": "owner",
          "type": "address"
        }
      ],
      "name": "balanceOf",
      "outputs": [
        {
          "internalType": "uint256",
          "name": "",
          "type": "uint256"
        }
      ],
      "stateMutability": "view",
      "type": "function",
      "constant": true
    },
    {
      "inputs": [
        {
          "internalType": "uint256",
          "name": "tokenId",
          "type": "uint256"
        }
      ],
      "name": "burn",
      "outputs": [],
      "stateMutability": "nonpayable",
      "type": "function"
    },
    {
      "inputs": [
        {
          "internalType": "uint256",
          "name": "tokenId",
          "type": "uint256"
        }
      ],
      "name": "getApproved",
      "outputs": [
        {
          "internalType": "address",
          "name": "",
          "type": "address"
        }
      ],
      "stateMutability": "view",
      "type": "function",
      "constant": true
    },
    {
      "inputs": [
        {
          "internalType": "address",
          "name": "owner",
          "type": "address"
        },
        {
          "internalType": "address",
          "name": "operator",
          "type": "address"
        }
      ],
      "name": "isApprovedForAll",
      "outputs": [
        {
          "internalType": "bool",
          "name": "",
          "type": "bool"
        }
      ],
      "stateMutability": "view",
      "type": "function",
      "constant": true
    },
    {
      "inputs": [],
      "name": "name",
      "outputs": [
        {
          "internalType": "string",
          "name": "",
          "type": "string"
        }
      ],
      "stateMutability": "view",
      "type": "function",
      "constant": true
    },
    {
      "inputs": [],
      "name": "owner",
      "outputs": [
        {
          "internalType": "address",
          "name": "",
          "type": "address"
        }
      ],
      "stateMutability": "view",
      "type": "function",
      "constant": true
    },
    {
      "inputs": [
        {
          "internalType": "uint256",
          "name": "tokenId",
          "type": "uint256"
        }
      ],
      "name": "ownerOf",
      "outputs": [
        {
          "internalType": "address",
          "name": "",
          "type": "address"
        }
      ],
      "stateMutability": "view",
      "type": "function",
      "constant": true
    },
    {
      "inputs": [],
      "name": "paused",
      "outputs": [
        {
          "internalType": "bool",
          "name": "",
          "type": "bool"
        }
      ],
      "stateMutability": "view",
      "type": "function",
      "constant": true
    },
    {
      "inputs": [],
      "name": "renounceOwnership",
      "outputs": [],
      "stateMutability": "nonpayable",
      "type": "function"
    },
    {
      "inputs": [
        {
          "internalType": "address",
          "name": "from",
          "type": "address"
        },
        {
          "internalType": "address",
          "name": "to",
          "type": "address"
        },
        {
          "internalType": "uint256",
          "name": "tokenId",
          "type": "uint256"
        }
      ],
      "name": "safeTransferFrom",
      "outputs": [],
      "stateMutability": "nonpayable",
      "type": "function"
    },
    {
      "inputs": [
        {
          "internalType": "address",
          "name": "from",
          "type": "address"
        },
        {
          "internalType": "address",
          "name": "to",
          "type": "address"
        },
        {
          "internalType": "uint256",
          "name": "tokenId",
          "type": "uint256"
        },
        {
          "internalType": "bytes",
          "name": "_data",
          "type": "bytes"
        }
      ],
      "name": "safeTransferFrom",
      "outputs": [],
      "stateMutability": "nonpayable",
      "type": "function"
    },
    {
      "inputs": [
        {
          "internalType": "address",
          "name": "operator",
          "type": "address"
        },
        {
          "internalType": "bool",
          "name": "approved",
          "type": "bool"
        }
      ],
      "name": "setApprovalForAll",
      "outputs": [],
      "stateMutability": "nonpayable",
      "type": "function"
    },
    {
      "inputs": [],
      "name": "symbol",
      "outputs": [
        {
          "internalType": "string",
          "name": "",
          "type": "string"
        }
      ],
      "stateMutability": "view",
      "type": "function",
      "constant": true
    },
    {
      "inputs": [
        {
          "internalType": "uint256",
          "name": "index",
          "type": "uint256"
        }
      ],
      "name": "tokenByIndex",
      "outputs": [
        {
          "internalType": "uint256",
          "name": "",
          "type": "uint256"
        }
      ],
      "stateMutability": "view",
      "type": "function",
      "constant": true
    },
    {
      "inputs": [
        {
          "internalType": "address",
          "name": "owner",
          "type": "address"
        },
        {
          "internalType": "uint256",
          "name": "index",
          "type": "uint256"
        }
      ],
      "name": "tokenOfOwnerByIndex",
      "outputs": [
        {
          "internalType": "uint256",
          "name": "",
          "type": "uint256"
        }
      ],
      "stateMutability": "view",
      "type": "function",
      "constant": true
    },
    {
      "inputs": [
        {
          "internalType": "uint256",
          "name": "tokenId",
          "type": "uint256"
        }
      ],
      "name": "tokenURI",
      "outputs": [
        {
          "internalType": "string",
          "name": "",
          "type": "string"
        }
      ],
      "stateMutability": "view",
      "type": "function",
      "constant": true
    },
    {
      "inputs": [],
      "name": "totalSupply",
      "outputs": [
        {
          "internalType": "uint256",
          "name": "",
          "type": "uint256"
        }
      ],
      "stateMutability": "view",
      "type": "function",
      "constant": true
    },
    {
      "inputs": [
        {
          "internalType": "address",
          "name": "from",
          "type": "address"
        },
        {
          "internalType": "address",
          "name": "to",
          "type": "address"
        },
        {
          "internalType": "uint256",
          "name": "tokenId",
          "type": "uint256"
        }
      ],
      "name": "transferFrom",
      "outputs": [],
      "stateMutability": "nonpayable",
      "type": "function"
    },
    {
      "inputs": [
        {
          "internalType": "address",
          "name": "newOwner",
          "type": "address"
        }
      ],
      "name": "transferOwnership",
      "outputs": [],
      "stateMutability": "nonpayable",
      "type": "function"
    },
    {
      "inputs": [
        {
          "internalType": "address payable",
          "name": "_to",
          "type": "address"
        },
        {
          "internalType": "uint256[]",
          "name": "_ids",
          "type": "uint256[]"
        }
      ],
      "name": "mint",
      "outputs": [],
      "stateMutability": "payable",
      "type": "function",
      "payable": true
    },
    {
      "inputs": [],
      "name": "startWhitelistOne",
      "outputs": [],
      "stateMutability": "nonpayable",
      "type": "function"
    },
    {
      "inputs": [],
      "name": "startWhitelistTwo",
      "outputs": [],
      "stateMutability": "nonpayable",
      "type": "function"
    },
    {
      "inputs": [],
      "name": "startPublicSale",
      "outputs": [],
      "stateMutability": "nonpayable",
      "type": "function"
    },
    {
      "inputs": [],
      "name": "flipSaleState",
      "outputs": [],
      "stateMutability": "nonpayable",
      "type": "function"
    },
    {
      "inputs": [
        {
          "internalType": "string",
          "name": "baseURI",
          "type": "string"
        }
      ],
      "name": "setBaseURI",
      "outputs": [],
      "stateMutability": "nonpayable",
      "type": "function"
    },
    {
      "inputs": [],
      "name": "getPrice",
      "outputs": [
        {
          "internalType": "uint256",
          "name": "",
          "type": "uint256"
        }
      ],
      "stateMutability": "view",
      "type": "function",
      "constant": true
    },
    {
      "inputs": [],
      "name": "maxSupply",
      "outputs": [
        {
          "internalType": "uint256",
          "name": "",
          "type": "uint256"
        }
      ],
      "stateMutability": "view",
      "type": "function",
      "constant": true
    },
    {
      "inputs": [],
      "name": "occupiedList",
      "outputs": [
        {
          "internalType": "uint256[]",
          "name": "",
          "type": "uint256[]"
        }
      ],
      "stateMutability": "view",
      "type": "function",
      "constant": true
    },
    {
      "inputs": [],
      "name": "maxMint",
      "outputs": [
        {
          "internalType": "uint256",
          "name": "",
          "type": "uint256"
        }
      ],
      "stateMutability": "view",
      "type": "function",
      "constant": true
    },
    {
      "inputs": [],
      "name": "raised",
      "outputs": [
        {
          "internalType": "uint256",
          "name": "",
          "type": "uint256"
        }
      ],
      "stateMutability": "view",
      "type": "function",
      "constant": true
    },
    {
      "inputs": [
        {
          "internalType": "address",
          "name": "_owner",
          "type": "address"
        }
      ],
      "name": "getTokenIdsOfWallet",
      "outputs": [
        {
          "internalType": "uint256[]",
          "name": "",
          "type": "uint256[]"
        }
      ],
      "stateMutability": "view",
      "type": "function",
      "constant": true
    },
    {
      "inputs": [],
      "name": "withdrawAll",
      "outputs": [],
      "stateMutability": "payable",
      "type": "function",
      "payable": true
    },
    {
      "inputs": [
        {
          "internalType": "bytes4",
          "name": "interfaceId",
          "type": "bytes4"
        }
      ],
      "name": "supportsInterface",
      "outputs": [
        {
          "internalType": "bool",
          "name": "",
          "type": "bool"
        }
      ],
      "stateMutability": "view",
      "type": "function",
      "constant": true
    }
  ],
  "bytecode": "0x60806040526000600c60006101000a81548160ff02191690831515021790555073a6cbeecfecedf62a5ed5dcf0e381da68a85b44a6601260006101000a81548173ffffffffffffffffffffffffffffffffffffffff021916908373ffffffffffffffffffffffffffffffffffffffff1602179055503480156200008157600080fd5b506040518060400160405280600e81526020017f446f6f646c6520467269656e64730000000000000000000000000000000000008152506040518060400160405280600d81526020017f446f6f646c65467269656e64730000000000000000000000000000000000000081525081600090805190602001906200010692919062000231565b5080600190805190602001906200011f92919062000231565b50505062000142620001366200016360201b60201c565b6200016b60201b60201c565b6000600a60146101000a81548160ff02191690831515021790555062000346565b600033905090565b6000600a60009054906101000a900473ffffffffffffffffffffffffffffffffffffffff16905081600a60006101000a81548173ffffffffffffffffffffffffffffffffffffffff021916908373ffffffffffffffffffffffffffffffffffffffff1602179055508173ffffffffffffffffffffffffffffffffffffffff168173ffffffffffffffffffffffffffffffffffffffff167f8be0079c531659141344cd1fd0a4f28419497f9722a3daafe3b4186f6b6457e060405160405180910390a35050565b8280546200023f9062000310565b90600052602060002090601f016020900481019282620002635760008555620002af565b82601f106200027e57805160ff1916838001178555620002af565b82800160010185558215620002af579182015b82811115620002ae57825182559160200191906001019062000291565b5b509050620002be9190620002c2565b5090565b5b80821115620002dd576000816000905550600101620002c3565b5090565b7f4e487b7100000000000000000000000000000000000000000000000000000000600052602260045260246000fd5b600060028204905060018216806200032957607f821691505b6020821081141562000340576200033f620002e1565b5b50919050565b614f4780620003566000396000f3fe6080604052600436106102045760003560e01c8063715018a611610118578063b88d4fde116100a0578063de836ebd1161006f578063de836ebd146106fe578063e985e9c51461071a578063eef6250814610757578063f0ea4bfc14610794578063f2fde38b146107bf57610204565b8063b88d4fde14610656578063c3762e5d1461067f578063c87b56dd14610696578063d5abeb01146106d357610204565b80638e26d2aa116100e75780638e26d2aa1461058157806395d89b41146105ac57806398d5fdca146105d7578063a22cb46514610602578063a769cba91461062b57610204565b8063715018a61461050a5780637501f74114610521578063853828b61461054c5780638da5cb5b1461055657610204565b80632f745c591161019b5780634f6ccce71161016a5780634f6ccce7146103ff57806355f804b31461043c5780635c975abb146104655780636352211e1461049057806370a08231146104cd57610204565b80632f745c591461035957806334918dfd1461039657806342842e0e146103ad57806342966c68146103d657610204565b80630c1c972a116101d75780630c1c972a146102d757806318160ddd146102ee5780631a048a791461031957806323b872dd1461033057610204565b806301ffc9a71461020957806306fdde0314610246578063081812fc14610271578063095ea7b3146102ae575b600080fd5b34801561021557600080fd5b50610230600480360381019061022b91906131f3565b6107e8565b60405161023d919061323b565b60405180910390f35b34801561025257600080fd5b5061025b6107fa565b60405161026891906132ef565b60405180910390f35b34801561027d57600080fd5b5061029860048036038101906102939190613347565b61088c565b6040516102a591906133b5565b60405180910390f35b3480156102ba57600080fd5b506102d560048036038101906102d091906133fc565b610911565b005b3480156102e357600080fd5b506102ec610a29565b005b3480156102fa57600080fd5b50610303610ada565b604051610310919061344b565b60405180910390f35b34801561032557600080fd5b5061032e610ae7565b005b34801561033c57600080fd5b5061035760048036038101906103529190613466565b610b98565b005b34801561036557600080fd5b50610380600480360381019061037b91906133fc565b610bf8565b60405161038d919061344b565b60405180910390f35b3480156103a257600080fd5b506103ab610c9d565b005b3480156103b957600080fd5b506103d460048036038101906103cf9190613466565b610d45565b005b3480156103e257600080fd5b506103fd60048036038101906103f89190613347565b610d65565b005b34801561040b57600080fd5b5061042660048036038101906104219190613347565b610dc1565b604051610433919061344b565b60405180910390f35b34801561044857600080fd5b50610463600480360381019061045e91906135ee565b610e32565b005b34801561047157600080fd5b5061047a610ec8565b604051610487919061323b565b60405180910390f35b34801561049c57600080fd5b506104b760048036038101906104b29190613347565b610edf565b6040516104c491906133b5565b60405180910390f35b3480156104d957600080fd5b506104f460048036038101906104ef9190613637565b610f91565b604051610501919061344b565b60405180910390f35b34801561051657600080fd5b5061051f611049565b005b34801561052d57600080fd5b506105366110d1565b604051610543919061344b565b60405180910390f35b6105546110db565b005b34801561056257600080fd5b5061056b611202565b60405161057891906133b5565b60405180910390f35b34801561058d57600080fd5b5061059661122c565b6040516105a3919061323b565b60405180910390f35b3480156105b857600080fd5b506105c161123f565b6040516105ce91906132ef565b60405180910390f35b3480156105e357600080fd5b506105ec6112d1565b6040516105f9919061344b565b60405180910390f35b34801561060e57600080fd5b5061062960048036038101906106249190613690565b6112db565b005b34801561063757600080fd5b506106406112f1565b60405161064d919061378e565b60405180910390f35b34801561066257600080fd5b5061067d60048036038101906106789190613851565b611349565b005b34801561068b57600080fd5b506106946113ab565b005b3480156106a257600080fd5b506106bd60048036038101906106b89190613347565b61145a565b6040516106ca91906132ef565b60405180910390f35b3480156106df57600080fd5b506106e8611501565b6040516106f5919061344b565b60405180910390f35b610718600480360381019061071391906139da565b61150b565b005b34801561072657600080fd5b50610741600480360381019061073c9190613a36565b6118ac565b60405161074e919061323b565b60405180910390f35b34801561076357600080fd5b5061077e60048036038101906107799190613637565b611940565b60405161078b919061378e565b60405180910390f35b3480156107a057600080fd5b506107a96119ee565b6040516107b6919061344b565b60405180910390f35b3480156107cb57600080fd5b506107e660048036038101906107e19190613637565b6119f6565b005b60006107f382611aee565b9050919050565b60606000805461080990613aa5565b80601f016020809104026020016040519081016040528092919081815260200182805461083590613aa5565b80156108825780601f1061085757610100808354040283529160200191610882565b820191906000526020600020905b81548152906001019060200180831161086557829003601f168201915b5050505050905090565b600061089782611b68565b6108d6576040517f08c379a00000000000000000000000000000000000000000000000000000000081526004016108cd90613b49565b60405180910390fd5b6004600083815260200190815260200160002060009054906101000a900473ffffffffffffffffffffffffffffffffffffffff169050919050565b600061091c82610edf565b90508073ffffffffffffffffffffffffffffffffffffffff168373ffffffffffffffffffffffffffffffffffffffff16141561098d576040517f08c379a000000000000000000000000000000000000000000000000000000000815260040161098490613bdb565b60405180910390fd5b8073ffffffffffffffffffffffffffffffffffffffff166109ac611bd4565b73ffffffffffffffffffffffffffffffffffffffff1614806109db57506109da816109d5611bd4565b6118ac565b5b610a1a576040517f08c379a0000000000000000000000000000000000000000000000000000000008152600401610a1190613c6d565b60405180910390fd5b610a248383611bdc565b505050565b610a31611bd4565b73ffffffffffffffffffffffffffffffffffffffff16610a4f611202565b73ffffffffffffffffffffffffffffffffffffffff1614610aa5576040517f08c379a0000000000000000000000000000000000000000000000000000000008152600401610a9c90613cd9565b60405180910390fd5b6001600c60006101000a81548160ff02191690831515021790555067012dfb0cb5e88000600d81905550610d19600e81905550565b6000600880549050905090565b610aef611bd4565b73ffffffffffffffffffffffffffffffffffffffff16610b0d611202565b73ffffffffffffffffffffffffffffffffffffffff1614610b63576040517f08c379a0000000000000000000000000000000000000000000000000000000008152600401610b5a90613cd9565b60405180910390fd5b6001600c60006101000a81548160ff02191690831515021790555067010a741a46278000600d81905550610d19600e81905550565b610ba9610ba3611bd4565b82611c95565b610be8576040517f08c379a0000000000000000000000000000000000000000000000000000000008152600401610bdf90613d6b565b60405180910390fd5b610bf3838383611d73565b505050565b6000610c0383610f91565b8210610c44576040517f08c379a0000000000000000000000000000000000000000000000000000000008152600401610c3b90613dfd565b60405180910390fd5b600660008473ffffffffffffffffffffffffffffffffffffffff1673ffffffffffffffffffffffffffffffffffffffff168152602001908152602001600020600083815260200190815260200160002054905092915050565b610ca5611bd4565b73ffffffffffffffffffffffffffffffffffffffff16610cc3611202565b73ffffffffffffffffffffffffffffffffffffffff1614610d19576040517f08c379a0000000000000000000000000000000000000000000000000000000008152600401610d1090613cd9565b60405180910390fd5b600c60009054906101000a900460ff1615600c60006101000a81548160ff021916908315150217905550565b610d6083838360405180602001604052806000815250611349565b505050565b610d76610d70611bd4565b82611c95565b610db5576040517f08c379a0000000000000000000000000000000000000000000000000000000008152600401610dac90613e8f565b60405180910390fd5b610dbe81611fcf565b50565b6000610dcb610ada565b8210610e0c576040517f08c379a0000000000000000000000000000000000000000000000000000000008152600401610e0390613f21565b60405180910390fd5b60088281548110610e2057610e1f613f41565b5b90600052602060002001549050919050565b610e3a611bd4565b73ffffffffffffffffffffffffffffffffffffffff16610e58611202565b73ffffffffffffffffffffffffffffffffffffffff1614610eae576040517f08c379a0000000000000000000000000000000000000000000000000000000008152600401610ea590613cd9565b60405180910390fd5b8060119080519060200190610ec49291906130e4565b5050565b6000600a60149054906101000a900460ff16905090565b6000806002600084815260200190815260200160002060009054906101000a900473ffffffffffffffffffffffffffffffffffffffff169050600073ffffffffffffffffffffffffffffffffffffffff168173ffffffffffffffffffffffffffffffffffffffff161415610f88576040517f08c379a0000000000000000000000000000000000000000000000000000000008152600401610f7f90613fe2565b60405180910390fd5b80915050919050565b60008073ffffffffffffffffffffffffffffffffffffffff168273ffffffffffffffffffffffffffffffffffffffff161415611002576040517f08c379a0000000000000000000000000000000000000000000000000000000008152600401610ff990614074565b60405180910390fd5b600360008373ffffffffffffffffffffffffffffffffffffffff1673ffffffffffffffffffffffffffffffffffffffff168152602001908152602001600020549050919050565b611051611bd4565b73ffffffffffffffffffffffffffffffffffffffff1661106f611202565b73ffffffffffffffffffffffffffffffffffffffff16146110c5576040517f08c379a00000000000000000000000000000000000000000000000000000000081526004016110bc90613cd9565b60405180910390fd5b6110cf60006120e0565b565b6000600e54905090565b6110e3611bd4565b73ffffffffffffffffffffffffffffffffffffffff16611101611202565b73ffffffffffffffffffffffffffffffffffffffff1614611157576040517f08c379a000000000000000000000000000000000000000000000000000000000815260040161114e90613cd9565b60405180910390fd5b60004790506000811161119f576040517f08c379a0000000000000000000000000000000000000000000000000000000008152600401611196906140e0565b60405180910390fd5b6000600a826111ae919061415e565b9050600081836111be919061418f565b90506111ec601260009054906101000a900473ffffffffffffffffffffffffffffffffffffffff16836121a6565b6111fd6111f7611202565b826121a6565b505050565b6000600a60009054906101000a900473ffffffffffffffffffffffffffffffffffffffff16905090565b600c60009054906101000a900460ff1681565b60606001805461124e90613aa5565b80601f016020809104026020016040519081016040528092919081815260200182805461127a90613aa5565b80156112c75780601f1061129c576101008083540402835291602001916112c7565b820191906000526020600020905b8154815290600101906020018083116112aa57829003601f168201915b5050505050905090565b6000600d54905090565b6112ed6112e6611bd4565b8383612257565b5050565b6060601080548060200260200160405190810160405280929190818152602001828054801561133f57602002820191906000526020600020905b81548152602001906001019080831161132b575b5050505050905090565b61135a611354611bd4565b83611c95565b611399576040517f08c379a000000000000000000000000000000000000000000000000000000000815260040161139090613d6b565b60405180910390fd5b6113a5848484846123c4565b50505050565b6113b3611bd4565b73ffffffffffffffffffffffffffffffffffffffff166113d1611202565b73ffffffffffffffffffffffffffffffffffffffff1614611427576040517f08c379a000000000000000000000000000000000000000000000000000000000815260040161141e90613cd9565b60405180910390fd5b6001600c60006101000a81548160ff02191690831515021790555066e6ed27d6668000600d819055506003600e81905550565b606061146582611b68565b6114a4576040517f08c379a000000000000000000000000000000000000000000000000000000000815260040161149b90614235565b60405180910390fd5b60006114ae612420565b905060008151116114ce57604051806020016040528060008152506114f9565b806114d8846124b2565b6040516020016114e9929190614291565b6040516020818303038152906040525b915050919050565b6000610d19905090565b611513611202565b73ffffffffffffffffffffffffffffffffffffffff16611531611bd4565b73ffffffffffffffffffffffffffffffffffffffff16146115a35760011515600c60009054906101000a900460ff161515146115a2576040517f08c379a000000000000000000000000000000000000000000000000000000000815260040161159990614327565b60405180910390fd5b5b610d196115ae612613565b11156115ef576040517f08c379a00000000000000000000000000000000000000000000000000000000081526004016115e690614393565b60405180910390fd5b6115f7611202565b73ffffffffffffffffffffffffffffffffffffffff16611615611bd4565b73ffffffffffffffffffffffffffffffffffffffff161461167957611638610ec8565b15611678576040517f08c379a000000000000000000000000000000000000000000000000000000000815260040161166f906143ff565b60405180910390fd5b5b6000611683612613565b90506000610d1990506000600e5490506000600d549050828551856116a8919061441f565b11156116e9576040517f08c379a00000000000000000000000000000000000000000000000000000000081526004016116e0906144e7565b60405180910390fd5b8284111561172c576040517f08c379a000000000000000000000000000000000000000000000000000000000815260040161172390614579565b60405180910390fd5b8185511115611770576040517f08c379a00000000000000000000000000000000000000000000000000000000081526004016117679061460b565b60405180910390fd5b84518161177d919061462b565b3410156117bf576040517f08c379a00000000000000000000000000000000000000000000000000000000081526004016117b6906146f7565b60405180910390fd5b60005b855181101561185f5760001515600f60008884815181106117e6576117e5613f41565b5b6020026020010151815260200190815260200160002060009054906101000a900460ff1615151461184c576040517f08c379a000000000000000000000000000000000000000000000000000000000815260040161184390614789565b60405180910390fd5b8080611857906147a9565b9150506117c2565b5060005b85518110156118a3576118908787838151811061188357611882613f41565b5b6020026020010151612624565b808061189b906147a9565b915050611863565b50505050505050565b6000600560008473ffffffffffffffffffffffffffffffffffffffff1673ffffffffffffffffffffffffffffffffffffffff16815260200190815260200160002060008373ffffffffffffffffffffffffffffffffffffffff1673ffffffffffffffffffffffffffffffffffffffff16815260200190815260200160002060009054906101000a900460ff16905092915050565b6060600061194d83610f91565b905060008167ffffffffffffffff81111561196b5761196a6134c3565b5b6040519080825280602002602001820160405280156119995781602001602082028036833780820191505090505b50905060005b828110156119e3576119b18582610bf8565b8282815181106119c4576119c3613f41565b5b60200260200101818152505080806119db906147a9565b91505061199f565b508092505050919050565b600047905090565b6119fe611bd4565b73ffffffffffffffffffffffffffffffffffffffff16611a1c611202565b73ffffffffffffffffffffffffffffffffffffffff1614611a72576040517f08c379a0000000000000000000000000000000000000000000000000000000008152600401611a6990613cd9565b60405180910390fd5b600073ffffffffffffffffffffffffffffffffffffffff168173ffffffffffffffffffffffffffffffffffffffff161415611ae2576040517f08c379a0000000000000000000000000000000000000000000000000000000008152600401611ad990614864565b60405180910390fd5b611aeb816120e0565b50565b60007f780e9d63000000000000000000000000000000000000000000000000000000007bffffffffffffffffffffffffffffffffffffffffffffffffffffffff1916827bffffffffffffffffffffffffffffffffffffffffffffffffffffffff19161480611b615750611b60826126c9565b5b9050919050565b60008073ffffffffffffffffffffffffffffffffffffffff166002600084815260200190815260200160002060009054906101000a900473ffffffffffffffffffffffffffffffffffffffff1673ffffffffffffffffffffffffffffffffffffffff1614159050919050565b600033905090565b816004600083815260200190815260200160002060006101000a81548173ffffffffffffffffffffffffffffffffffffffff021916908373ffffffffffffffffffffffffffffffffffffffff160217905550808273ffffffffffffffffffffffffffffffffffffffff16611c4f83610edf565b73ffffffffffffffffffffffffffffffffffffffff167f8c5be1e5ebec7d5bd14f71427d1e84f3dd0314c0f7b2291e5b200ac8c7c3b92560405160405180910390a45050565b6000611ca082611b68565b611cdf576040517f08c379a0000000000000000000000000000000000000000000000000000000008152600401611cd6906148f6565b60405180910390fd5b6000611cea83610edf565b90508073ffffffffffffffffffffffffffffffffffffffff168473ffffffffffffffffffffffffffffffffffffffff161480611d5957508373ffffffffffffffffffffffffffffffffffffffff16611d418461088c565b73ffffffffffffffffffffffffffffffffffffffff16145b80611d6a5750611d6981856118ac565b5b91505092915050565b8273ffffffffffffffffffffffffffffffffffffffff16611d9382610edf565b73ffffffffffffffffffffffffffffffffffffffff1614611de9576040517f08c379a0000000000000000000000000000000000000000000000000000000008152600401611de090614988565b60405180910390fd5b600073ffffffffffffffffffffffffffffffffffffffff168273ffffffffffffffffffffffffffffffffffffffff161415611e59576040517f08c379a0000000000000000000000000000000000000000000000000000000008152600401611e5090614a1a565b60405180910390fd5b611e648383836127ab565b611e6f600082611bdc565b6001600360008573ffffffffffffffffffffffffffffffffffffffff1673ffffffffffffffffffffffffffffffffffffffff1681526020019081526020016000206000828254611ebf919061418f565b925050819055506001600360008473ffffffffffffffffffffffffffffffffffffffff1673ffffffffffffffffffffffffffffffffffffffff1681526020019081526020016000206000828254611f16919061441f565b92505081905550816002600083815260200190815260200160002060006101000a81548173ffffffffffffffffffffffffffffffffffffffff021916908373ffffffffffffffffffffffffffffffffffffffff160217905550808273ffffffffffffffffffffffffffffffffffffffff168473ffffffffffffffffffffffffffffffffffffffff167fddf252ad1be2c89b69c2b068fc378daa952ba7f163c4a11628f55a4df523b3ef60405160405180910390a4505050565b6000611fda82610edf565b9050611fe8816000846127ab565b611ff3600083611bdc565b6001600360008373ffffffffffffffffffffffffffffffffffffffff1673ffffffffffffffffffffffffffffffffffffffff1681526020019081526020016000206000828254612043919061418f565b925050819055506002600083815260200190815260200160002060006101000a81549073ffffffffffffffffffffffffffffffffffffffff021916905581600073ffffffffffffffffffffffffffffffffffffffff168273ffffffffffffffffffffffffffffffffffffffff167fddf252ad1be2c89b69c2b068fc378daa952ba7f163c4a11628f55a4df523b3ef60405160405180910390a45050565b6000600a60009054906101000a900473ffffffffffffffffffffffffffffffffffffffff16905081600a60006101000a81548173ffffffffffffffffffffffffffffffffffffffff021916908373ffffffffffffffffffffffffffffffffffffffff1602179055508173ffffffffffffffffffffffffffffffffffffffff168173ffffffffffffffffffffffffffffffffffffffff167f8be0079c531659141344cd1fd0a4f28419497f9722a3daafe3b4186f6b6457e060405160405180910390a35050565b60008273ffffffffffffffffffffffffffffffffffffffff16826040516121cc90614a6b565b60006040518083038185875af1925050503d8060008114612209576040519150601f19603f3d011682016040523d82523d6000602084013e61220e565b606091505b5050905080612252576040517f08c379a000000000000000000000000000000000000000000000000000000000815260040161224990614acc565b60405180910390fd5b505050565b8173ffffffffffffffffffffffffffffffffffffffff168373ffffffffffffffffffffffffffffffffffffffff1614156122c6576040517f08c379a00000000000000000000000000000000000000000000000000000000081526004016122bd90614b38565b60405180910390fd5b80600560008573ffffffffffffffffffffffffffffffffffffffff1673ffffffffffffffffffffffffffffffffffffffff16815260200190815260200160002060008473ffffffffffffffffffffffffffffffffffffffff1673ffffffffffffffffffffffffffffffffffffffff16815260200190815260200160002060006101000a81548160ff0219169083151502179055508173ffffffffffffffffffffffffffffffffffffffff168373ffffffffffffffffffffffffffffffffffffffff167f17307eab39ab6107e8899845ad3d59bd9653f200f220920489ca2b5937696c31836040516123b7919061323b565b60405180910390a3505050565b6123cf848484611d73565b6123db848484846127bb565b61241a576040517f08c379a000000000000000000000000000000000000000000000000000000000815260040161241190614bca565b60405180910390fd5b50505050565b60606011805461242f90613aa5565b80601f016020809104026020016040519081016040528092919081815260200182805461245b90613aa5565b80156124a85780601f1061247d576101008083540402835291602001916124a8565b820191906000526020600020905b81548152906001019060200180831161248b57829003601f168201915b5050505050905090565b606060008214156124fa576040518060400160405280600181526020017f3000000000000000000000000000000000000000000000000000000000000000815250905061260e565b600082905060005b6000821461252c578080612515906147a9565b915050600a82612525919061415e565b9150612502565b60008167ffffffffffffffff811115612548576125476134c3565b5b6040519080825280601f01601f19166020018201604052801561257a5781602001600182028036833780820191505090505b5090505b6000851461260757600182612593919061418f565b9150600a856125a29190614bea565b60306125ae919061441f565b60f81b8183815181106125c4576125c3613f41565b5b60200101907effffffffffffffffffffffffffffffffffffffffffffffffffffffffffffff1916908160001a905350600a85612600919061415e565b945061257e565b8093505050505b919050565b600061261f600b612943565b905090565b61262e600b612951565b6126388282612967565b6001600f600083815260200190815260200160002060006101000a81548160ff0219169083151502179055506010819080600181540180825580915050600190039060005260206000200160009091909190915055807f40a8b7bdd48fae488e5a454ae61342c246af8e217ca663d2e621ae114c961239836040516126bd9190614c7a565b60405180910390a25050565b60007f80ac58cd000000000000000000000000000000000000000000000000000000007bffffffffffffffffffffffffffffffffffffffffffffffffffffffff1916827bffffffffffffffffffffffffffffffffffffffffffffffffffffffff1916148061279457507f5b5e139f000000000000000000000000000000000000000000000000000000007bffffffffffffffffffffffffffffffffffffffffffffffffffffffff1916827bffffffffffffffffffffffffffffffffffffffffffffffffffffffff1916145b806127a457506127a382612985565b5b9050919050565b6127b68383836129ef565b505050565b60006127dc8473ffffffffffffffffffffffffffffffffffffffff16612a89565b15612936578373ffffffffffffffffffffffffffffffffffffffff1663150b7a02612805611bd4565b8786866040518563ffffffff1660e01b81526004016128279493929190614cea565b6020604051808303816000875af192505050801561286357506040513d601f19601f820116820180604052508101906128609190614d4b565b60015b6128e6573d8060008114612893576040519150601f19603f3d011682016040523d82523d6000602084013e612898565b606091505b506000815114156128de576040517f08c379a00000000000000000000000000000000000000000000000000000000081526004016128d590614bca565b60405180910390fd5b805181602001fd5b63150b7a0260e01b7bffffffffffffffffffffffffffffffffffffffffffffffffffffffff1916817bffffffffffffffffffffffffffffffffffffffffffffffffffffffff19161491505061293b565b600190505b949350505050565b600081600001549050919050565b6001816000016000828254019250508190555050565b612981828260405180602001604052806000815250612a9c565b5050565b60007f01ffc9a7000000000000000000000000000000000000000000000000000000007bffffffffffffffffffffffffffffffffffffffffffffffffffffffff1916827bffffffffffffffffffffffffffffffffffffffffffffffffffffffff1916149050919050565b6129fa838383612af7565b612a02611202565b73ffffffffffffffffffffffffffffffffffffffff16612a20611bd4565b73ffffffffffffffffffffffffffffffffffffffff1614612a8457612a43610ec8565b15612a83576040517f08c379a0000000000000000000000000000000000000000000000000000000008152600401612a7a90614dea565b60405180910390fd5b5b505050565b600080823b905060008111915050919050565b612aa68383612c0b565b612ab360008484846127bb565b612af2576040517f08c379a0000000000000000000000000000000000000000000000000000000008152600401612ae990614bca565b60405180910390fd5b505050565b612b02838383612dd9565b600073ffffffffffffffffffffffffffffffffffffffff168373ffffffffffffffffffffffffffffffffffffffff161415612b4557612b4081612dde565b612b84565b8173ffffffffffffffffffffffffffffffffffffffff168373ffffffffffffffffffffffffffffffffffffffff1614612b8357612b828382612e27565b5b5b600073ffffffffffffffffffffffffffffffffffffffff168273ffffffffffffffffffffffffffffffffffffffff161415612bc757612bc281612f94565b612c06565b8273ffffffffffffffffffffffffffffffffffffffff168273ffffffffffffffffffffffffffffffffffffffff1614612c0557612c048282613065565b5b5b505050565b600073ffffffffffffffffffffffffffffffffffffffff168273ffffffffffffffffffffffffffffffffffffffff161415612c7b576040517f08c379a0000000000000000000000000000000000000000000000000000000008152600401612c7290614e56565b60405180910390fd5b612c8481611b68565b15612cc4576040517f08c379a0000000000000000000000000000000000000000000000000000000008152600401612cbb90614ec2565b60405180910390fd5b612cd0600083836127ab565b6001600360008473ffffffffffffffffffffffffffffffffffffffff1673ffffffffffffffffffffffffffffffffffffffff1681526020019081526020016000206000828254612d20919061441f565b92505081905550816002600083815260200190815260200160002060006101000a81548173ffffffffffffffffffffffffffffffffffffffff021916908373ffffffffffffffffffffffffffffffffffffffff160217905550808273ffffffffffffffffffffffffffffffffffffffff16600073ffffffffffffffffffffffffffffffffffffffff167fddf252ad1be2c89b69c2b068fc378daa952ba7f163c4a11628f55a4df523b3ef60405160405180910390a45050565b505050565b6008805490506009600083815260200190815260200160002081905550600881908060018154018082558091505060019003906000526020600020016000909190919091505550565b60006001612e3484610f91565b612e3e919061418f565b9050600060076000848152602001908152602001600020549050818114612f23576000600660008673ffffffffffffffffffffffffffffffffffffffff1673ffffffffffffffffffffffffffffffffffffffff168152602001908152602001600020600084815260200190815260200160002054905080600660008773ffffffffffffffffffffffffffffffffffffffff1673ffffffffffffffffffffffffffffffffffffffff168152602001908152602001600020600084815260200190815260200160002081905550816007600083815260200190815260200160002081905550505b6007600084815260200190815260200160002060009055600660008573ffffffffffffffffffffffffffffffffffffffff1673ffffffffffffffffffffffffffffffffffffffff16815260200190815260200160002060008381526020019081526020016000206000905550505050565b60006001600880549050612fa8919061418f565b9050600060096000848152602001908152602001600020549050600060088381548110612fd857612fd7613f41565b5b906000526020600020015490508060088381548110612ffa57612ff9613f41565b5b90600052602060002001819055508160096000838152602001908152602001600020819055506009600085815260200190815260200160002060009055600880548061304957613048614ee2565b5b6001900381819060005260206000200160009055905550505050565b600061307083610f91565b905081600660008573ffffffffffffffffffffffffffffffffffffffff1673ffffffffffffffffffffffffffffffffffffffff168152602001908152602001600020600083815260200190815260200160002081905550806007600084815260200190815260200160002081905550505050565b8280546130f090613aa5565b90600052602060002090601f0160209004810192826131125760008555613159565b82601f1061312b57805160ff1916838001178555613159565b82800160010185558215613159579182015b8281111561315857825182559160200191906001019061313d565b5b509050613166919061316a565b5090565b5b8082111561318357600081600090555060010161316b565b5090565b6000604051905090565b600080fd5b600080fd5b60007fffffffff0000000000000000000000000000000000000000000000000000000082169050919050565b6131d08161319b565b81146131db57600080fd5b50565b6000813590506131ed816131c7565b92915050565b60006020828403121561320957613208613191565b5b6000613217848285016131de565b91505092915050565b60008115159050919050565b61323581613220565b82525050565b6000602082019050613250600083018461322c565b92915050565b600081519050919050565b600082825260208201905092915050565b60005b83811015613290578082015181840152602081019050613275565b8381111561329f576000848401525b50505050565b6000601f19601f8301169050919050565b60006132c182613256565b6132cb8185613261565b93506132db818560208601613272565b6132e4816132a5565b840191505092915050565b6000602082019050818103600083015261330981846132b6565b905092915050565b6000819050919050565b61332481613311565b811461332f57600080fd5b50565b6000813590506133418161331b565b92915050565b60006020828403121561335d5761335c613191565b5b600061336b84828501613332565b91505092915050565b600073ffffffffffffffffffffffffffffffffffffffff82169050919050565b600061339f82613374565b9050919050565b6133af81613394565b82525050565b60006020820190506133ca60008301846133a6565b92915050565b6133d981613394565b81146133e457600080fd5b50565b6000813590506133f6816133d0565b92915050565b6000806040838503121561341357613412613191565b5b6000613421858286016133e7565b925050602061343285828601613332565b9150509250929050565b61344581613311565b82525050565b6000602082019050613460600083018461343c565b92915050565b60008060006060848603121561347f5761347e613191565b5b600061348d868287016133e7565b935050602061349e868287016133e7565b92505060406134af86828701613332565b9150509250925092565b600080fd5b600080fd5b7f4e487b7100000000000000000000000000000000000000000000000000000000600052604160045260246000fd5b6134fb826132a5565b810181811067ffffffffffffffff8211171561351a576135196134c3565b5b80604052505050565b600061352d613187565b905061353982826134f2565b919050565b600067ffffffffffffffff821115613559576135586134c3565b5b613562826132a5565b9050602081019050919050565b82818337600083830152505050565b600061359161358c8461353e565b613523565b9050828152602081018484840111156135ad576135ac6134be565b5b6135b884828561356f565b509392505050565b600082601f8301126135d5576135d46134b9565b5b81356135e584826020860161357e565b91505092915050565b60006020828403121561360457613603613191565b5b600082013567ffffffffffffffff81111561362257613621613196565b5b61362e848285016135c0565b91505092915050565b60006020828403121561364d5761364c613191565b5b600061365b848285016133e7565b91505092915050565b61366d81613220565b811461367857600080fd5b50565b60008135905061368a81613664565b92915050565b600080604083850312156136a7576136a6613191565b5b60006136b5858286016133e7565b92505060206136c68582860161367b565b9150509250929050565b600081519050919050565b600082825260208201905092915050565b6000819050602082019050919050565b61370581613311565b82525050565b600061371783836136fc565b60208301905092915050565b6000602082019050919050565b600061373b826136d0565b61374581856136db565b9350613750836136ec565b8060005b83811015613781578151613768888261370b565b975061377383613723565b925050600181019050613754565b5085935050505092915050565b600060208201905081810360008301526137a88184613730565b905092915050565b600067ffffffffffffffff8211156137cb576137ca6134c3565b5b6137d4826132a5565b9050602081019050919050565b60006137f46137ef846137b0565b613523565b9050828152602081018484840111156138105761380f6134be565b5b61381b84828561356f565b509392505050565b600082601f830112613838576138376134b9565b5b81356138488482602086016137e1565b91505092915050565b6000806000806080858703121561386b5761386a613191565b5b6000613879878288016133e7565b945050602061388a878288016133e7565b935050604061389b87828801613332565b925050606085013567ffffffffffffffff8111156138bc576138bb613196565b5b6138c887828801613823565b91505092959194509250565b60006138df82613374565b9050919050565b6138ef816138d4565b81146138fa57600080fd5b50565b60008135905061390c816138e6565b92915050565b600067ffffffffffffffff82111561392d5761392c6134c3565b5b602082029050602081019050919050565b600080fd5b600061395661395184613912565b613523565b905080838252602082019050602084028301858111156139795761397861393e565b5b835b818110156139a2578061398e8882613332565b84526020840193505060208101905061397b565b5050509392505050565b600082601f8301126139c1576139c06134b9565b5b81356139d1848260208601613943565b91505092915050565b600080604083850312156139f1576139f0613191565b5b60006139ff858286016138fd565b925050602083013567ffffffffffffffff811115613a2057613a1f613196565b5b613a2c858286016139ac565b9150509250929050565b60008060408385031215613a4d57613a4c613191565b5b6000613a5b858286016133e7565b9250506020613a6c858286016133e7565b9150509250929050565b7f4e487b7100000000000000000000000000000000000000000000000000000000600052602260045260246000fd5b60006002820490506001821680613abd57607f821691505b60208210811415613ad157613ad0613a76565b5b50919050565b7f4552433732313a20617070726f76656420717565727920666f72206e6f6e657860008201527f697374656e7420746f6b656e0000000000000000000000000000000000000000602082015250565b6000613b33602c83613261565b9150613b3e82613ad7565b604082019050919050565b60006020820190508181036000830152613b6281613b26565b9050919050565b7f4552433732313a20617070726f76616c20746f2063757272656e74206f776e6560008201527f7200000000000000000000000000000000000000000000000000000000000000602082015250565b6000613bc5602183613261565b9150613bd082613b69565b604082019050919050565b60006020820190508181036000830152613bf481613bb8565b9050919050565b7f4552433732313a20617070726f76652063616c6c6572206973206e6f74206f7760008201527f6e6572206e6f7220617070726f76656420666f7220616c6c0000000000000000602082015250565b6000613c57603883613261565b9150613c6282613bfb565b604082019050919050565b60006020820190508181036000830152613c8681613c4a565b9050919050565b7f4f776e61626c653a2063616c6c6572206973206e6f7420746865206f776e6572600082015250565b6000613cc3602083613261565b9150613cce82613c8d565b602082019050919050565b60006020820190508181036000830152613cf281613cb6565b9050919050565b7f4552433732313a207472616e736665722063616c6c6572206973206e6f74206f60008201527f776e6572206e6f7220617070726f766564000000000000000000000000000000602082015250565b6000613d55603183613261565b9150613d6082613cf9565b604082019050919050565b60006020820190508181036000830152613d8481613d48565b9050919050565b7f455243373231456e756d657261626c653a206f776e657220696e646578206f7560008201527f74206f6620626f756e6473000000000000000000000000000000000000000000602082015250565b6000613de7602b83613261565b9150613df282613d8b565b604082019050919050565b60006020820190508181036000830152613e1681613dda565b9050919050565b7f4552433732314275726e61626c653a2063616c6c6572206973206e6f74206f7760008201527f6e6572206e6f7220617070726f76656400000000000000000000000000000000602082015250565b6000613e79603083613261565b9150613e8482613e1d565b604082019050919050565b60006020820190508181036000830152613ea881613e6c565b9050919050565b7f455243373231456e756d657261626c653a20676c6f62616c20696e646578206f60008201527f7574206f6620626f756e64730000000000000000000000000000000000000000602082015250565b6000613f0b602c83613261565b9150613f1682613eaf565b604082019050919050565b60006020820190508181036000830152613f3a81613efe565b9050919050565b7f4e487b7100000000000000000000000000000000000000000000000000000000600052603260045260246000fd5b7f4552433732313a206f776e657220717565727920666f72206e6f6e657869737460008201527f656e7420746f6b656e0000000000000000000000000000000000000000000000602082015250565b6000613fcc602983613261565b9150613fd782613f70565b604082019050919050565b60006020820190508181036000830152613ffb81613fbf565b9050919050565b7f4552433732313a2062616c616e636520717565727920666f7220746865207a6560008201527f726f206164647265737300000000000000000000000000000000000000000000602082015250565b600061405e602a83613261565b915061406982614002565b604082019050919050565b6000602082019050818103600083015261408d81614051565b9050919050565b7f57495448445241573a204e6f2062616c616e636520696e20636f6e7472616374600082015250565b60006140ca602083613261565b91506140d582614094565b602082019050919050565b600060208201905081810360008301526140f9816140bd565b9050919050565b7f4e487b7100000000000000000000000000000000000000000000000000000000600052601260045260246000fd5b7f4e487b7100000000000000000000000000000000000000000000000000000000600052601160045260246000fd5b600061416982613311565b915061417483613311565b92508261418457614183614100565b5b828204905092915050565b600061419a82613311565b91506141a583613311565b9250828210156141b8576141b761412f565b5b828203905092915050565b7f4552433732314d657461646174613a2055524920717565727920666f72206e6f60008201527f6e6578697374656e7420746f6b656e0000000000000000000000000000000000602082015250565b600061421f602f83613261565b915061422a826141c3565b604082019050919050565b6000602082019050818103600083015261424e81614212565b9050919050565b600081905092915050565b600061426b82613256565b6142758185614255565b9350614285818560208601613272565b80840191505092915050565b600061429d8285614260565b91506142a98284614260565b91508190509392505050565b7f53414c45533a20506c656173652077616974206120626967206c6f6e6765722060008201527f6265666f726520627579696e6720446f6f646c6520467269656e6473203b2900602082015250565b6000614311603f83613261565b915061431c826142b5565b604082019050919050565b6000602082019050818103600083015261434081614304565b9050919050565b7f53414c45533a2053616c6520656e640000000000000000000000000000000000600082015250565b600061437d600f83613261565b915061438882614347565b602082019050919050565b600060208201905081810360008301526143ac81614370565b9050919050565b7f5041555341424c453a2050617573656400000000000000000000000000000000600082015250565b60006143e9601083613261565b91506143f4826143b3565b602082019050919050565b60006020820190508181036000830152614418816143dc565b9050919050565b600061442a82613311565b915061443583613311565b9250827fffffffffffffffffffffffffffffffffffffffffffffffffffffffffffffffff0382111561446a5761446961412f565b5b828201905092915050565b7f4d494e543a2043757272656e7420636f756e742065786365656473206d61786960008201527f6d756d20656c656d656e7420636f756e742e0000000000000000000000000000602082015250565b60006144d1603283613261565b91506144dc82614475565b604082019050919050565b60006020820190508181036000830152614500816144c4565b9050919050565b7f4d494e543a20506c6561736520676f20746f20746865204f70656e736561207460008201527f6f2062757920446f6f646c6520467269656e64732e0000000000000000000000602082015250565b6000614563603583613261565b915061456e82614507565b604082019050919050565b6000602082019050818103600083015261459281614556565b9050919050565b7f4d494e543a2043757272656e7420636f756e742065786365656473206d61786960008201527f6d756d206d696e7420636f756e742e0000000000000000000000000000000000602082015250565b60006145f5602f83613261565b915061460082614599565b604082019050919050565b60006020820190508181036000830152614624816145e8565b9050919050565b600061463682613311565b915061464183613311565b9250817fffffffffffffffffffffffffffffffffffffffffffffffffffffffffffffffff048311821515161561467a5761467961412f565b5b828202905092915050565b7f4d494e543a2043757272656e742076616c75652069732062656c6f772074686560008201527f2073616c6573207072696365206f6620446f6f646c6520467269656e64730000602082015250565b60006146e1603e83613261565b91506146ec82614685565b604082019050919050565b60006020820190508181036000830152614710816146d4565b9050919050565b7f4d494e543a2054686f73652069647320616c726561647920686176652062656560008201527f6e207573656420666f72206f7468657220637573746f6d657273000000000000602082015250565b6000614773603a83613261565b915061477e82614717565b604082019050919050565b600060208201905081810360008301526147a281614766565b9050919050565b60006147b482613311565b91507fffffffffffffffffffffffffffffffffffffffffffffffffffffffffffffffff8214156147e7576147e661412f565b5b600182019050919050565b7f4f776e61626c653a206e6577206f776e657220697320746865207a65726f206160008201527f6464726573730000000000000000000000000000000000000000000000000000602082015250565b600061484e602683613261565b9150614859826147f2565b604082019050919050565b6000602082019050818103600083015261487d81614841565b9050919050565b7f4552433732313a206f70657261746f7220717565727920666f72206e6f6e657860008201527f697374656e7420746f6b656e0000000000000000000000000000000000000000602082015250565b60006148e0602c83613261565b91506148eb82614884565b604082019050919050565b6000602082019050818103600083015261490f816148d3565b9050919050565b7f4552433732313a207472616e73666572206f6620746f6b656e2074686174206960008201527f73206e6f74206f776e0000000000000000000000000000000000000000000000602082015250565b6000614972602983613261565b915061497d82614916565b604082019050919050565b600060208201905081810360008301526149a181614965565b9050919050565b7f4552433732313a207472616e7366657220746f20746865207a65726f2061646460008201527f7265737300000000000000000000000000000000000000000000000000000000602082015250565b6000614a04602483613261565b9150614a0f826149a8565b604082019050919050565b60006020820190508181036000830152614a33816149f7565b9050919050565b600081905092915050565b50565b6000614a55600083614a3a565b9150614a6082614a45565b600082019050919050565b6000614a7682614a48565b9150819050919050565b7f57495448445241573a205472616e73666572206661696c65642e000000000000600082015250565b6000614ab6601a83613261565b9150614ac182614a80565b602082019050919050565b60006020820190508181036000830152614ae581614aa9565b9050919050565b7f4552433732313a20617070726f766520746f2063616c6c657200000000000000600082015250565b6000614b22601983613261565b9150614b2d82614aec565b602082019050919050565b60006020820190508181036000830152614b5181614b15565b9050919050565b7f4552433732313a207472616e7366657220746f206e6f6e20455243373231526560008201527f63656976657220696d706c656d656e7465720000000000000000000000000000602082015250565b6000614bb4603283613261565b9150614bbf82614b58565b604082019050919050565b60006020820190508181036000830152614be381614ba7565b9050919050565b6000614bf582613311565b9150614c0083613311565b925082614c1057614c0f614100565b5b828206905092915050565b6000819050919050565b6000614c40614c3b614c3684613374565b614c1b565b613374565b9050919050565b6000614c5282614c25565b9050919050565b6000614c6482614c47565b9050919050565b614c7481614c59565b82525050565b6000602082019050614c8f6000830184614c6b565b92915050565b600081519050919050565b600082825260208201905092915050565b6000614cbc82614c95565b614cc68185614ca0565b9350614cd6818560208601613272565b614cdf816132a5565b840191505092915050565b6000608082019050614cff60008301876133a6565b614d0c60208301866133a6565b614d19604083018561343c565b8181036060830152614d2b8184614cb1565b905095945050505050565b600081519050614d45816131c7565b92915050565b600060208284031215614d6157614d60613191565b5b6000614d6f84828501614d36565b91505092915050565b7f4552433732315061757361626c653a20746f6b656e207472616e73666572207760008201527f68696c6520706175736564000000000000000000000000000000000000000000602082015250565b6000614dd4602b83613261565b9150614ddf82614d78565b604082019050919050565b60006020820190508181036000830152614e0381614dc7565b9050919050565b7f4552433732313a206d696e7420746f20746865207a65726f2061646472657373600082015250565b6000614e40602083613261565b9150614e4b82614e0a565b602082019050919050565b60006020820190508181036000830152614e6f81614e33565b9050919050565b7f4552433732313a20746f6b656e20616c7265616479206d696e74656400000000600082015250565b6000614eac601c83613261565b9150614eb782614e76565b602082019050919050565b60006020820190508181036000830152614edb81614e9f565b9050919050565b7f4e487b7100000000000000000000000000000000000000000000000000000000600052603160045260246000fdfea2646970667358221220b78797e02c3018f131e8715560ee864a3c78b15409a3b4ffbd8688f4f54a1dbc64736f6c634300080b0033",
  "immutableReferences": {},
  "source": "// SPDX-License-Identifier: MIT\r\n\r\n/**\r\n *                     \r\n *            \r\n *                             \r\n *                            \r\n *             \r\n *                     \r\n *\r\n * This amazing collection consists of 3,353 NFTs, combining a mixture of curated 2D and 3D beautiful characters! \r\n * From this 3,353, 2D collection, there will be limited numbers of rare 1 to 1 \"3D\" Friends available! \r\n * As a project, our goal is to be much different by way of choosing a \"community first\" approach and offering more value than anyone else!\r\n */\r\n\r\npragma solidity 0.8.11;\r\n\r\nimport \"@openzeppelin/contracts/token/ERC721/ERC721.sol\";\r\nimport \"@openzeppelin/contracts/token/ERC721/extensions/ERC721Enumerable.sol\";\r\nimport \"@openzeppelin/contracts/token/ERC721/extensions/ERC721Burnable.sol\";\r\nimport \"@openzeppelin/contracts/access/Ownable.sol\";\r\nimport \"@openzeppelin/contracts/utils/math/SafeMath.sol\";\r\nimport \"@openzeppelin/contracts/utils/Counters.sol\";\r\nimport \"./ERC721Pausable.sol\";\r\n\r\ncontract DoodleFriends is ERC721Enumerable, Ownable, ERC721Burnable, ERC721Pausable {\r\n\r\n    using SafeMath for uint256;\r\n    using Counters for Counters.Counter;\r\n\r\n    Counters.Counter private _tokenIdTracker;\r\n\r\n    bool public SALE_OPEN = false;\r\n\r\n    uint256 private constant MAX_SUPPLY = 3353; // 3353 Doodle Friends\r\n    uint256 private constant MAX_MINT_LIMITED = 3; // 3 batch mint max\r\n    uint256 private constant MAX_MINT_UNLIMITED = 3353; // unlimited batch mint\r\n\r\n    uint256 private constant PRICE_WHITELIST_ONE = 0.065 ether; // Stage One for Whitelist\r\n    uint256 private constant PRICE_WHITELIST_TWO = 0.075 ether; // Stage Two for Whitelist\r\n    uint256 private constant PRICE_PUBLIC = 0.085 ether; // Public Sale Price\r\n\r\n    uint256 private _price;\r\n    uint256 private _maxMint;\r\n\r\n    mapping(uint256 => bool) private _isOccupiedId;\r\n    uint256[] private _occupiedList;\r\n\r\n    string private baseTokenURI;\r\n\r\n    address private devWallet = payable(0xa6CBeecFEceDF62A5ED5dcf0E381da68A85b44A6); // Developer Wallet Address\r\n\r\n    event DoodleFriendSummoned(address to, uint256 indexed id);\r\n\r\n    modifier saleIsOpen {\r\n        if (_msgSender() != owner()) {\r\n            require(SALE_OPEN == true, \"SALES: Please wait a big longer before buying Doodle Friends ;)\");\r\n        }\r\n        require(_totalSupply() <= MAX_SUPPLY, \"SALES: Sale end\");\r\n\r\n        if (_msgSender() != owner()) {\r\n            require(!paused(), \"PAUSABLE: Paused\");\r\n        }\r\n        _;\r\n    }\r\n\r\n    constructor () ERC721(\"Doodle Friends\", \"DoodleFriends\") {\r\n    // constructor (string memory baseURI) ERC721(\"Doodle Friends\", \"DoodleFriends\") {\r\n        // setBaseURI(baseURI);\r\n    }\r\n\r\n    function mint(address payable _to, uint256[] memory _ids) public payable saleIsOpen {\r\n        uint256 total = _totalSupply();\r\n        uint256 maxSupply = MAX_SUPPLY;\r\n        uint256 maxMintCount = _maxMint;\r\n        uint256 price = _price;\r\n\r\n        require(total + _ids.length <= maxSupply, \"MINT: Current count exceeds maximum element count.\");\r\n        require(total <= maxSupply, \"MINT: Please go to the Opensea to buy Doodle Friends.\");\r\n        require(_ids.length <= maxMintCount, \"MINT: Current count exceeds maximum mint count.\");\r\n        require(msg.value >= price * _ids.length, \"MINT: Current value is below the sales price of Doodle Friends\");\r\n\r\n        for (uint256 i = 0; i < _ids.length; i++) {\r\n            require(_isOccupiedId[_ids[i]] == false, \"MINT: Those ids already have been used for other customers\");\r\n        }\r\n\r\n        for (uint256 i = 0; i < _ids.length; i++) {\r\n            _mintAnElement(_to, _ids[i]);\r\n        }\r\n    }\r\n\r\n    function _mintAnElement(address payable _to, uint256 _id) private {\r\n        _tokenIdTracker.increment();\r\n        _safeMint(_to, _id);\r\n        _isOccupiedId[_id] = true;\r\n        _occupiedList.push(_id);\r\n\r\n        emit DoodleFriendSummoned(_to, _id);\r\n    }\r\n\r\n    function startWhitelistOne() public onlyOwner {\r\n        SALE_OPEN = true;\r\n\r\n        _price = PRICE_WHITELIST_ONE;\r\n        _maxMint = MAX_MINT_LIMITED;\r\n    }\r\n\r\n    function startWhitelistTwo() public onlyOwner {\r\n        SALE_OPEN = true;\r\n\r\n        _price = PRICE_WHITELIST_TWO;\r\n        _maxMint = MAX_MINT_UNLIMITED;\r\n    }\r\n\r\n    function startPublicSale() public onlyOwner {\r\n        SALE_OPEN = true;\r\n\r\n        _price = PRICE_PUBLIC;\r\n        _maxMint = MAX_MINT_UNLIMITED;\r\n    }\r\n\r\n    function flipSaleState() public onlyOwner {\r\n        SALE_OPEN = !SALE_OPEN;\r\n    }\r\n\r\n    function setBaseURI(string memory baseURI) public onlyOwner {\r\n        baseTokenURI = baseURI;\r\n    }\r\n\r\n    function _baseURI() internal view virtual override returns (string memory) {\r\n        return baseTokenURI;\r\n    }\r\n\r\n    function _totalSupply() internal view returns (uint256) {\r\n        return _tokenIdTracker.current();\r\n    }\r\n\r\n    function getPrice() public view returns (uint256) {\r\n        return _price;\r\n    }\r\n\r\n    function maxSupply() public view returns (uint256) {\r\n        return MAX_SUPPLY;\r\n    }\r\n\r\n    function occupiedList() public view returns (uint256[] memory) {\r\n        return _occupiedList;\r\n    }\r\n\r\n    function maxMint() public view returns (uint256) {\r\n        return _maxMint;\r\n    }\r\n\r\n    function raised() public view returns (uint256) {\r\n        return address(this).balance;\r\n    }\r\n\r\n    function getTokenIdsOfWallet(address _owner) external view returns (uint256[] memory) {\r\n        uint256 tokenCount = balanceOf(_owner);\r\n\r\n        uint256[] memory tokensId = new uint256[](tokenCount);\r\n\r\n        for (uint256 i = 0; i < tokenCount; i++) {\r\n            tokensId[i] = tokenOfOwnerByIndex(_owner, i);\r\n        }\r\n\r\n        return tokensId;\r\n    }\r\n\r\n    function withdrawAll() public payable onlyOwner {\r\n        uint256 totalBalance = address(this).balance;\r\n        require(totalBalance > 0, \"WITHDRAW: No balance in contract\");\r\n\r\n        uint256 devBalance = totalBalance / 10; // 10% of total sale\r\n        uint256 ownerBalance = totalBalance - devBalance; // 90% of total sale\r\n\r\n        _widthdraw(devWallet, devBalance);\r\n        _widthdraw(owner(), ownerBalance);\r\n    }\r\n\r\n    function _widthdraw(address _address, uint256 _amount) private {\r\n        (bool success, ) = _address.call{value: _amount}(\"\");\r\n        require(success, \"WITHDRAW: Transfer failed.\");\r\n    }\r\n\r\n    function _beforeTokenTransfer(\r\n        address from,\r\n        address to,\r\n        uint256 tokenId\r\n    ) internal virtual override(ERC721, ERC721Enumerable, ERC721Pausable) {\r\n        super._beforeTokenTransfer(from, to, tokenId);\r\n    }\r\n\r\n    function supportsInterface(bytes4 interfaceId) public view virtual override(ERC721, ERC721Enumerable) returns (bool) {\r\n        return super.supportsInterface(interfaceId);\r\n    }\r\n}",
  "sourcePath": "F:\\Cory_Career\\The_Legends\\mint-doodle-friends\\mint-doodle-friends\\contracts\\DoodleFriends.sol",
  "compiler": {
    "name": "solc",
    "version": "0.8.11+commit.d7f03943.Emscripten.clang"
  },
  "schemaVersion": "3.4.3",
  "updatedAt": "2022-02-05T16:50:48.032Z",
  "networkType": "ethereum",
  "devdoc": {
    "kind": "dev",
    "methods": {
      "approve(address,uint256)": {
        "details": "See {IERC721-approve}."
      },
      "balanceOf(address)": {
        "details": "See {IERC721-balanceOf}."
      },
      "burn(uint256)": {
        "details": "Burns `tokenId`. See {ERC721-_burn}. Requirements: - The caller must own `tokenId` or be an approved operator."
      },
      "getApproved(uint256)": {
        "details": "See {IERC721-getApproved}."
      },
      "isApprovedForAll(address,address)": {
        "details": "See {IERC721-isApprovedForAll}."
      },
      "name()": {
        "details": "See {IERC721Metadata-name}."
      },
      "owner()": {
        "details": "Returns the address of the current owner."
      },
      "ownerOf(uint256)": {
        "details": "See {IERC721-ownerOf}."
      },
      "paused()": {
        "details": "Returns true if the contract is paused, and false otherwise."
      },
      "renounceOwnership()": {
        "details": "Leaves the contract without owner. It will not be possible to call `onlyOwner` functions anymore. Can only be called by the current owner. NOTE: Renouncing ownership will leave the contract without an owner, thereby removing any functionality that is only available to the owner."
      },
      "safeTransferFrom(address,address,uint256)": {
        "details": "See {IERC721-safeTransferFrom}."
      },
      "safeTransferFrom(address,address,uint256,bytes)": {
        "details": "See {IERC721-safeTransferFrom}."
      },
      "setApprovalForAll(address,bool)": {
        "details": "See {IERC721-setApprovalForAll}."
      },
      "symbol()": {
        "details": "See {IERC721Metadata-symbol}."
      },
      "tokenByIndex(uint256)": {
        "details": "See {IERC721Enumerable-tokenByIndex}."
      },
      "tokenOfOwnerByIndex(address,uint256)": {
        "details": "See {IERC721Enumerable-tokenOfOwnerByIndex}."
      },
      "tokenURI(uint256)": {
        "details": "See {IERC721Metadata-tokenURI}."
      },
      "totalSupply()": {
        "details": "See {IERC721Enumerable-totalSupply}."
      },
      "transferFrom(address,address,uint256)": {
        "details": "See {IERC721-transferFrom}."
      },
      "transferOwnership(address)": {
        "details": "Transfers ownership of the contract to a new account (`newOwner`). Can only be called by the current owner."
      }
    },
    "version": 1
  },
  "userdoc": {
    "kind": "user",
    "methods": {},
    "version": 1
  }
}